:020000040800F2
:100000005805002001010008E71D0008371C000802
:10001000E51D0008510800086D21000800000000DF
:10002000000000000000000000000000EB1D0008C0
:100030005308000800000000E91D0008ED1D00083D
:100040001B0100081B0100081B0100081B01000820
:100050001B0100081B0100081B0100081B01000810
:100060001B0100081B0100081B0100081B01000800
:100070001B0100081B0100081B0100081B010008F0
:100080001B0100081B0100081B0100081B010008E0
:100090001B0100081B0100081B0100081B010008D0
:1000A0001B0100085D1E00081B010008511E00080E
:1000B0001B0100081B0100081B0100081B010008B0
:1000C0001B0100081B0100081B0100081B010008A0
:1000D0001B010008552100081B01000861210008D0
:1000E0001B0100081B0100081B010008DFF80CD0F1
:1000F00000F01EFB004800477D2A0008580500203C
:100100000648804706480047FEE7FEE7FEE7FEE7B1
:10011000FEE7FEE7FEE7FEE7FEE7FEE74F1E00080C
:10012000ED000008202A04DB203A21FA02F0002129
:10013000704721FA02F3D040C2F1200291400843F7
:1001400019467047D2B201E000F8012B491EFBD2DC
:1001500070470022F6E710B513460A4604461946D2
:10016000FFF7F0FF204610BDF0B480EA0102D40F83
:100170004200B2EB410F02D20246084611464A0045
:1001800042D0C30DDDB2C1F3C752AD1A202D35DA0E
:10019000C1F3160141F4000204B15242C5F1200638
:1001A00002FA06F12A411044B3EBD05F23D0C4B168
:1001B000012DA0EBC35009DCF0BC4FF0004202EA75
:1001C000C352DBB200F5000000F0CCB8400000F1F3
:1001D000807000EBC350A0F1807040EAD1704900FC
:1001E00009E0490841EAC071A0EBC35000F50000E6
:1001F000400800EBC350F0BC00F0ABB861420122F4
:1002000002EB4101001BF6E7F0BC704781F00041B2
:10021000AAE780F00040A7E730B480EA010202F0CC
:10022000004530F0004221F0004013D090B1C30DE2
:10023000D40DC2F31601C0F31600E41A41F4000114
:1002400040F400027D34914201D3641C00E0490077
:10025000002C02DA30BC002070474FF4000000236D
:10026000914201D3891A034340084FEA4101F7D173
:1002700051B1914202D14FF0004105E002D24FF05E
:10028000010101E06FF0010103EBC450284430BCD0
:1002900000F05FB896230022114600F063B800F02A
:1002A000004230F000400AD0C10D01F56071C0F38A
:1002B000160042EA0151C20840071143704700206E
:1002C0000146704730B50B4601460020202201242C
:1002D00009E021FA02F59D4205D303FA02F5491B14
:1002E00004FA02F52844151EA2F10102F1DC30BD2A
:1002F0002DE9F05F0546002092469B46884606465B
:10030000814640241BE02846414647462246FFF7E7
:1003100009FF53465A46C01A914110D31146184658
:10032000224600F017FA2D1A67EB01084F462246C5
:100330000120002100F00EFA17EB00094E41201EAB
:10034000A4F10104DFDC484631462A464346BDE8B5
:10035000F09F0029A8BF7047401C490008BF20F04B
:100360000100704710B4B0FA80FC00FA0CF050EABB
:10037000010404BF10BC704749B1CCF1200421FA3C
:1003800004F411FA0CF118BF012121430843A3EB37
:100390000C01CB1D4FEA00614FEA102042BF002044
:1003A00010BC704700EBC35010440029A4BF10BC20
:1003B0007047401C490008BF20F0010010BC704786
:1003C0002DE9FE4F804681EA0300C00F0C460090E5
:1003D00021F0004123F00045B8EB0200A94105D20D
:1003E0004046214690461C460B46024623F00040FC
:1003F000104347D0270DC7F30A00C3F30A510290F8
:10040000401A019040286BDAC3F3130040F4801BBC
:100410000098924620B10023D2EB030A63EB0B0B4A
:1004200001985946C0F14002504600F093F9064643
:100430000D4650465946019A00F09BF910EB080012
:100440006141002487EA115284EAE7731A4340D0DD
:10045000009A62B3019A012A4FEA075215DC001B89
:1004600061EB02014FF0004202EA0752CDE900427F
:10047000001C41F5801132462B4600F09BF903B079
:10048000BDE8F08F40462146F9E7001B61EB020111
:10049000001C41F5801300185B412018A2F50017DD
:1004A00047EB030140EAD570B6196D4111E06D08C4
:1004B0004FEA360645EAC0754FEA0752001B61EB6A
:1004C0000201001C41F5801149084FEA3000001973
:1004D000514132462B4603B0BDE8F04F00F05BB906
:1004E0000098012240000023D0EB020263EBE0738E
:1004F000009821464FEAE074B8EB000061EB04017C
:10050000E9E783F000435BE781F0004158E72DE91C
:10051000FE4F81EA030404F0004421F000410094FE
:100520004FF0000B23F0004350EA01045ED052EA82
:1005300003045BD0C3F30A54C1F30A552C44A4F25C
:10054000F3340194A0FB0254C1F3130141F4801170
:10055000C3F3130343F4801301FB024400FB034E77
:10056000840A970A44EA815447EA8357A4FB076840
:1005700002958D0A05FB07854FEA932C04FB0C546A
:100580002705029D4FEA065847EA1637B5EB0805DE
:100590006EEB070C870E920E47EA811742EA831230
:1005A000A7FB0201B6EB0B0164EB00042B0D43EA41
:1005B0000C335E1844EB1C50DA465146E7FB02014F
:1005C000C5F313044FEA0B3343EA14534FEA0432E2
:1005D000019C43EA0603A4F10C040294009CCDE9BB
:1005E00000B400F0E7F803B0BDE8F08F002001464A
:1005F000F9E72DE9F04D81EA030404F0004B21F006
:10060000004514464FF0000A23F0004150EA05026D
:1006100020D054EA01021DD0C5F30A570246C5F3A3
:100620001303C1F31300C1F30A5640F4801543F4D9
:100630008013A7EB0608101BD64608F2FD3873EBB3
:10064000050002D308F1010801E092185B41B8F1FE
:10065000000F03DA00200146BDE8F08D00204FF4C2
:100660008011064684460EE0171B73EB050705D381
:10067000121B63EB050306434CEA010C49084FEAE1
:10068000300092185B4150EA0107EDD152EA0300B5
:1006900012D082EA040083EA0501084305D0101B4A
:1006A000AB4106D20122002306E000224FF00043B6
:1006B00002E06FF0010253101AEB06004CEB0851F8
:1006C00010EB0A0041EB0B01BDE8F04D00F063B800
:1006D000C1F30A52C1F3130140F2FF3341F4801118
:1006E0009A4202DA00200146704740F233439A42B0
:1006F000A2F2334202DC5242FFF714BD00F02AB8E6
:1007000030B5041E71F1000404DB4FF00044404298
:1007100064EB0101141E73F1000405DB1C464FF06D
:100720000043524263EB0403994208BF904230BD3C
:10073000064C074D06E0E06840F0010394E807002E
:1007400098471034AC42F6D3FFF7D4FCA82C00082D
:10075000C82C0008202A04DB203A00FA02F100200D
:1007600070479140C2F1200320FA03F319439040EF
:100770007047202A06DBCB17203A41FA02F043EA01
:10078000E07306E041FA02F3D040C2F1200291404A
:1007900008431946704710B5141E73F1000408DAB7
:1007A000401C41F1000192185B411A4301D120F035
:1007B000010010BD2DE9F04D92469B4611B1B1FAF2
:1007C00081F202E0B0FA80F220329046FFF7C2FFD9
:1007D00004460F4640EA0A0041EA0B0153465A46D6
:1007E000084313D0114653EA010019D0C8F1400262
:1007F0005046FFF797FC05460E465046594642467E
:10080000FFF7A8FF084305D0012004E02046394641
:10081000BDE8F08D0020054346EAE0762C433743DF
:100820000A986305E40AA0EB08000022FD0A44EAE6
:1008300047540A3002D500200146E9E701051019A6
:100840006941DDE9084500196941BDE8F04DA2E7BD
:10085000FEE7704772B6FEE710B590F8211000244D
:10086000022903D00421816301243DE001680A6864
:1008700022F00E020A6001680A6822F001020A6092
:100880001A4A0168914201D1012121E0174A14322C
:10089000914201D110211BE0144A2832914201D12A
:1008A000891515E0114A3C32914201D189140FE0BB
:1008B0000E4A5032914202D14FF4803108E00B4A87
:1008C0006432914202D14FF4801101E04FF0807107
:1008D000064A083A5160012180F82110002180F871
:1008E0002010416B01B18847204610BD080002402E
:1008F00070B5044600F00CF90546601C02D00448AF
:100900000078044400F004F9401BA042FAD370BD03
:100910004C0000202DE9F84FDFF8B891002409F1D0
:10092000040A0AF1040B23460F270BF1040EC9E059
:100930000125A5402A40AA427DD1674ED1F804C0C6
:10094000ACEB0608B44532D014DCBCF1030F3AD04E
:1009500009DCBCF1000F2AD0BCF1010F1CD0BCF1A6
:10096000020F31D11DE0BCF1110F17D0BCF1120FF5
:100970002AD119E0B8F5881F19D006DCB8F5803FF8
:1009800015D0B8F5801F1FD111E0B8F5001F0ED0AB
:10099000B8F5041F18D10AE0CB6815E0CB681B1D21
:1009A00012E0CB6808330FE0CB680C330CE08B68A7
:1009B0002BB1012B4FF0080303D0456104E0042361
:1009C00002E0056100E00023FF2A01D8064601E0AD
:1009D00000F104064FEA840501D9A5F12005D6F8F7
:1009E000008007FA05FC28EA0C0803FA05F548EA36
:1009F0000508C6F800804D68ED0062D5374DAE6938
:100A000046F00106AE61AD6924F0030605F001056C
:100A10000095334D06EB050CDCF80850A607360FA1
:100A200007FA06F825EA0805DFF8B880404503D143
:100A30004FF0000817E044E0DFF8AC80404502D1F9
:100A40004FF001080FE0DFF8A480404502D14FF0DD
:100A5000020808E0DFF89880404502D14FF0030813
:100A600001E04FF0040808FA06F848EA0508CCF857
:100A700008804D68D9F80060ED034D4601D5164356
:100A800000E096432E604D68DAF80060AD035546ED
:100A900001D5164300E096432E604D68DBF80060F8
:100AA000ED025D4601D5164300E096432E604D6889
:100AB000DEF80060AD02754601D5164300E09643AE
:100AC0002E60641C0D682A46E5407FF431AFBDE816
:100AD000F88F0000000401400000111000100240D7
:100AE0000000014000080140000C014000100140DE
:100AF00000140140C26821EA02030A4043EA0241AD
:100B0000016170470AB1016170470904FBE7000009
:100B100001488068704700004C000020024881684E
:100B200002781144816070474C000020074810B5DE
:100B3000016841F010010160032000F079F8002005
:100B400000F006F800F024F8002010BD002002405C
:100B500070B50D4D04464FF47A712878B1FBF0F072
:100B60000A490968B1FBF0F000F0F0FA48B9102C1E
:100B700007D200222146501E00F03AF800206C6097
:100B800070BD012070BD00004C0000205800002006
:100B90000E4808B5816941F001018161816901F068
:100BA00001010091C16941F08051C161C06900F04B
:100BB00080500090052000F03BF80548416821F086
:100BC000E06141F00071416008BD0000001002408A
:100BD00000000140002809DB00F01F0201219140C4
:100BE0004009800000F1E020C0F8001170470000CB
:100BF000F0B40E4B1B680C46C3F30223C3F1070588
:100C0000042D00D90425191D072901D2002300E075
:100C1000DB1E012606FA05F1491E214099409E403F
:100C2000761E16403143F0BC01F0B2BA0CED00E084
:100C3000064900F0070208684FF6FF03184040EA33
:100C40000220034A10430860704700000CED00E0EA
:100C50000000FA052DE9F0470F46050061D0434E2C
:100C6000306800F00700B84209D2306820F0070071
:100C700038433060306800F00700B84251D128682E
:100C80003B4C810712D5400703D5606840F4E06013
:100C900060602878000703D5606840F460506060A9
:100CA0006068A96820F0F000084360602878C007F9
:100CB00028D06868012810D02168022810D0890740
:100CC00000292EDA616821F0030101436160FFF71A
:100CD0001FFF804641F288390DE021688903EFE764
:100CE0008901EDE7FFF714FFA0EB0801494502D9A0
:100CF0000320BDE8F0876068696800F00C00B0EB85
:100D0000810FEFD1306800F00700B8420BD930688E
:100D100020F0070038433060306800F00700B84228
:100D200001D00120E5E72878400705D56068E9682B
:100D300020F4E060084360602878000706D560680A
:100D4000296920F4605040EAC100606000F038F882
:100D50006168084AC1F30311515CC8400649086044
:100D600006480068FFF7F4FE0020C2E700200240BA
:100D700000100240902C0008580000205000002075
:100D80000448054900684968044AC1F30221515CDE
:100D9000C84070475800002000100240A02C0008F6
:100DA0000448054900684968044AC1F3C221515CFE
:100DB000C84070475800002000100240A02C0008D6
:100DC00012A185B00FC98DE80F0014A0144A006865
:100DD00004905168134801F00C03042B10D0082B29
:100DE0000ED1C1F38343C9031DF803000AD551682E
:100DF00004AAC1F34041515C0A4A5043B0FBF1F0F0
:100E000005B0704708494843FAE7000002030405AB
:100E1000060708090A0B0C0D0E0F10100102000046
:100E20000010024000127A0000093D002DE9F84F41
:100E3000040070D02078C04DC00749D06868C0F366
:100E40008100012807D06868C0F38100022809D119
:100E50006868C00306D52868800339D56068002813
:100E6000E7D035E06068B0F5803F0BD010B1B0F549
:100E7000A02F11D0286820F480302860286820F442
:100E8000802002E0286840F480302860606890B1DB
:100E9000FFF73EFE06460AE0286840F480202860FE
:100EA000F0E700BFFFF734FE801B642873D8286882
:100EB0008003F7D50CE0FFF72BFE064605E000BFE8
:100EC000FFF726FE801B6428F0D828688003F7D43B
:100ED00020789A4E80074FF001094FF0000839D56D
:100EE000686810F00C0F07D06868C0F38100022812
:100EF00009D16868C00306D42868800714D5206922
:100F0000012808D110E02069B0B1C6F80090FFF7C1
:100F1000FFFD074605E00AE1FFF7FAFDC01B0228C6
:100F2000C4D828688007F7D52868616920F0F800E0
:100F300040EAC10028600DE0C6F80080FFF7E8FD38
:100F4000074604E0FFF7E4FDC01B022823D8286809
:100F50008007F7D4207800072CD57948A169D9B14A
:100F6000C0F80090FFF7D4FD074604E0FFF7D0FD7E
:100F7000C01B02280FD8686A8007F7D571484FF464
:100F8000FA510068B0FBF1F0009000BF0098411EDC
:100F90000091FAD20EE080E0C0F80080FFF7B8FDC3
:100FA000074604E0FFF7B4FDC01B022875D8686A45
:100FB0008007F7D42078400760D5E8690027C00093
:100FC00008D4E86940F08050E861E869012700F042
:100FD000805000905C480168C90513D401688346BD
:100FE00041F480710160FFF793FD824606E000BF87
:100FF000FFF78EFDA0EB0A0064284ED8DBF8000056
:10100000C005F5D5E06801280AD008B1052813D03D
:10101000286A20F001002862286A20F0040002E01B
:10102000286A40F001002862E06841F2883B98B1EC
:10103000FFF76EFD82460BE0286A40F0040028624C
:10104000EEE700BFFFF764FDA0EB0A0159455AD84F
:10105000286A8007F6D50CE0FFF75AFD824605E0C6
:10106000FFF756FDA0EB0A0159454CD8286A8007C6
:10107000F6D41FB1E86920F08050E861E06988B3D8
:101080006968C1F38101022944D00228C6F8608052
:1010900004D0FFF73DFD044638E034E0FFF738FDAB
:1010A000074604E0FFF734FDC01B02282BD8286850
:1010B0008001F7D4206AB0F5803F05D16868A16847
:1010C00020F4003008436860D4E9080108436968E7
:1010D00021F4741108436860C6F86090FFF718FDAA
:1010E000044606E025E000BFFFF712FD001B0228C2
:1010F00009D828688001F7D51BE000BFFFF708FD7D
:10110000001B022802D90320BDE8F88F286880015F
:10111000F4D40EE00128F7D06868226A00F4803128
:10112000914204D1616A00F47010884201D001201C
:10113000EAE70020E8E70000001002400000424219
:1011400080044242580000200070004010B5401E4C
:10115000B0F1807F01D3012010BD4FF0E024606129
:101160000F21601701F014F80020A0610720206112
:10117000002010BD7047704770B590F83C20012AE0
:1011800026D0012480F83C40022280F83D200368EC
:101190005A689D6822F070060A6832435A600D4B07
:1011A00002689A4208D0B2F1804F05D00A4B9A42A9
:1011B00002D00A4B9A4204D1496825F080031943B2
:1011C000916080F83D40002180F83C10084670BDD9
:1011D000022070BD002C01400004004000080040C7
:1011E00090F83D10012901D001207047022180F8BC
:1011F0003D100168CA6842F00102CA6000680B49EC
:10120000884208D0B0F1804F05D00949884202D009
:101210000849884204D1816801F00701062903D0FA
:10122000016841F00101016000207047002C01407D
:1012300000040040000800402DE9F041174D002453
:10124000174F6878174E401CC0B2687001281ED036
:1012500004281AD114480168491C01600021134870
:1012600000F040FA80B23080397800EB0140FFF79F
:1012700011F80F49FEF7D0FF01460E48FEF7CCFFEC
:101280006968FEF771FF68606C70BDE8F08107481F
:10129000006844623C703480F7E7000000000020E2
:1012A0004200002048000020440000207000002080
:1012B00000247449000070422DE9F041054690F881
:1012C0003C000C46012836D0012085F83C008AB34A
:1012D000042A42D02868082A51D0D4E90023E168C2
:1012E000066A26F480560662C669076A26F44076C6
:1012F00046EA03234FF6FF7606EA013123F47043F2
:1013000019434FF4005627F4005306EA02321A43F9
:10131000C16102622868C16921F44061C161286825
:10132000C169A26841EA0221C161002085F83C0040
:10133000BDE8F08101E00220FAE7D4E90012E36899
:10134000286800F0D5FD2868816921F00C018161D1
:1013500028688169A26811430FE0D4E90012E368AC
:10136000286800F0F1FD2868816921F440618161FD
:1013700028688169A26841EA02218161D5E7D4E940
:101380000027267B016A21F480710162C169036A2A
:1013900021F00301394321F0F00731074FF40076C3
:1013A00047EA116123F4007306EA02221A43C1617D
:1013B00002622868C16921F00C01C1612868C16915
:1013C000A2681143B0E710B5040003D094F83D00C3
:1013D00010B107E0012010BD002084F83C00204639
:1013E00000F01EF8022084F83D00211D206800F066
:1013F0003BFD012084F8460084F83E0084F83F005D
:1014000084F8400084F8410084F8420084F84300E6
:1014100084F8440084F8450084F83D00002010BDA5
:1014200000B585B0002100910191029103910068FF
:101430001649884227D11648816941F400618161CB
:10144000816901F400610491816941F004018161C5
:101450008069694600F0040004904FF480700090A9
:101460000C48FFF757FA002201211920FFF7C0FBB3
:101470001920FFF7AFFB002201211B20FFF7B8FB6B
:101480001B20FFF7A7FB05B000BD0000002C0140AA
:10149000001002400008014070B504460068016970
:1014A0004FF00005C943890715D4C168C9438907AE
:1014B00011D4E91E0161012020772068806980072E
:1014C000204602D0FFF7B8FE04E000F098F820466E
:1014D00000F0F8F8257720680169C943490717D457
:1014E000C168C943490713D46FF0040101610220A8
:1014F00020772068806910F4407F204602D0FFF7F3
:101500009BFE04E000F07BF8204600F0DBF8257736
:1015100020680169C943090716D4C168C94309078E
:1015200012D46FF008010161042020772068C0699F
:101530008007204602D0FFF77FFE04E000F05FF84E
:10154000204600F0BFF8257720680169C943C90625
:1015500017D4C168C943C90613D46FF010010161E3
:10156000082020772068C06910F4407F204602D010
:10157000FFF762FE04E000F042F8204600F0A2F817
:10158000257720680169C943C90708D1C168C943E3
:10159000C90704D1891E0161204600F095F8206832
:1015A0000169C943090609D4C168C943090605D4BC
:1015B0006FF0800101612046FFF7DCFD20680169C2
:1015C000C943490609D4C168C943490605D46FF027
:1015D00040010161204600F09AF820680169C94382
:1015E00089060BD4C168C943890607D46FF020016E
:1015F00001612046BDE87040FFF7BDBD70BD70477A
:1016000010B50446022249B1042912D008291CD081
:1016100094F84100012823D0012010BD94F83E0029
:101620000128F9D184F83E202068C26842F0020205
:1016300009E094F83F000128EED184F83F202068AB
:10164000C26842F00402C2600EE094F84000012833
:10165000E2D184F840202068C26842F00802F2E734
:1016600084F841200C2922D00122206800F032FCAD
:1016700011492068884203D1426C42F4004242641E
:101680002068884208D0B0F1804F05D00B498842CD
:1016900002D00B49884204D1816801F00701062974
:1016A00003D0016841F001010160002010BD2068F5
:1016B000C26842F01002C6E7002C0140000400405E
:1016C000000800407047000000680449884203D1C8
:1016D00003490878401C087070470000002C014046
:1016E000420000200246002041B1042909D0082907
:1016F0000AD00C2901D11068006C70471068406B4B
:1017000070471068806B70471068C06B70477047F7
:101710007047000070B5026804461068D1685369CC
:1017200010F00F0F53D003F0010501F490762E4313
:101730005FD0C20705D0CA0503D5E26B42F00102B3
:10174000E263420705D5DA0703D0E26B42F00202FA
:10175000E263820705D5DA0703D0E26B42F00402A8
:10176000E263020707D501F020022A4303D0E26BAF
:1017700042F00802E263E26B002A34D0800604D50E
:10178000880602D5204600F010FC20684069E16B15
:10179000C0F3801001F008010143204624D000F07E
:1017A000F6FB2068416949061AD5416921F04001DC
:1017B0004161606BA0B12D494163606BFFF74CF84C
:1017C000002810D0606B416BBDE87040084783066D
:1017D0000FD58B060DD52046BDE8704000F0E5BB67
:1017E0002046FFF795FF70BDFFF792FF0020E063F2
:1017F00070BD03062BD50B0629D594F83900212896
:10180000F6D1A068B0F5805F01D12069B0B1206A3F
:10181000411C2162216800784860E08C401E000471
:10182000000CE084E4D12068C16821F08001C1602F
:101830002068C16841F04001C16070BD206A008825
:10184000C0F308005060206A801C2062E5E7400673
:10185000F3D54806F1D5D168204621F04001D1608A
:10186000202184F8391000F0E5F970BD7F1F0008D1
:1018700070B5040004D094F83900002510B106E0DA
:10188000012070BD84F83850204600F023F8242051
:1018900084F839002068C16821F40051C1602046F5
:1018A00000F0CAFB2068016921F4904101612068C1
:1018B000416921F02A0141612068C16841F4005169
:1018C000C160E563202084F8390084F83A000020E4
:1018D00070BD000070B586B000240094019402949D
:1018E000039403682E482D4E022103220515B342AE
:1018F00026D1836943F480438361836903F4804381
:101900000493836943F0040383618069254E00F0EA
:10191000040004900802CDE90001039269463046B4
:10192000FEF7F8FFCDE90054694630460294FEF711
:10193000F1FF002201212520FFF75AF9252028E098
:10194000194EB34227D1C36943F48023C361C369ED
:1019500003F480230493836943F00803836180695F
:10196000CDE9005100F00800CDE903200F4D694694
:101970002846FEF7CFFFE814CDE900046946284663
:101980000294FEF7C7FF002211462720FFF730F927
:101990002720FFF71FF906B070BD00000038014096
:1019A000001002400008014000480040000C0140C7
:1019B00090F83A30202B22D1F9B1F2B190F83830BA
:1019C000012B1CD081628285C2850021C163222245
:1019D00080F83A2080F838100168CA6842F48072B2
:1019E000CA6001684A6942F001024A610068C16840
:1019F00041F02001C16000207047012070470220A3
:101A0000704700002DE9F0470068324988425ED1F6
:101A1000DFF8C4804FF0010A98F80000A4281FD016
:101A20005FF00004214618F804202CA000F0A0FB71
:101A3000641C0C2CF6DB2FA000F09AFB2EA000F00B
:101A400097FB8AF31388BFF34F8F2E4801682E4A05
:101A500001F4E06111430160BFF34F8F00BFFDE768
:101A600098F80100294C6FF001056FF002066FF045
:101A700004076FF00809032801D025A00AE098F8B0
:101A80000200102801D925A004E098F803001028CE
:101A90000CD925A000F06CFB20680560206806606A
:101AA000206807602168C1F8009009E0072807D185
:101AB0002048017821B980F800A01FA000F058FB51
:101AC000BDE8F0470C2204491048FFF771BFBDE89C
:101AD000F087000000480040B80000207573617274
:101AE000745F72785F646174615B25645D3D257825
:101AF000200000000A000000D6A1CDB730B4EDCE22
:101B0000F30A00000CED00E00400FA0518010020C3
:101B1000D6A1CDB731B4EDCEF30A0000D6A1CDB732
:101B200032B4EDCEF30A0000D6A1CDB733B4EDCE7A
:101B3000F30A00004A000020526563656976655F1C
:101B40006F6B0A002DE9F843044690F839001F46F0
:101B500016460D4620284CD1C5B1BEB194F83800C8
:101B6000012846D0012084F838004FF00008C4F85E
:101B70003C80212084F83900FEF7CAFFA684814604
:101B8000E684A068B0F5805F03D004E00120BDE8E2
:101B9000F883206928B12E465FF0000584F838806C
:101BA0000EE00026FAE78021204600F0A1FAA0B955
:101BB000AEB116F8010B21684860E08C401EE0844D
:101BC000E08C4B464FF0000200970028EBD14FF01D
:101BD0004001204600F08CFA30B10320D7E735F8F9
:101BE000020BC0F30800E6E7202084F8390000204B
:101BF000CDE70220CBE790F83930202B18D1A9B1DE
:101C0000A2B190F83830012B12D001628284C284D4
:101C10000021C163212280F8392080F83810006843
:101C2000C16841F08001C160002070470120704709
:101C3000022070477047FEE72DE9F04786B0002488
:101C40002A480094019402940394816941F0200190
:101C50008161816901F020010491816941F00401F1
:101C60008161816901F004010491816941F00801F9
:101C700081618069DFF8789000F008004FF400453A
:101C80000490002229464846FEF73CFFDFF864A096
:101C90004FF44078002241465046FEF733FF0326BA
:101CA000CDE90064694648460294FEF733FE0127F9
:101CB000CDE9005702250295694648460395FEF78F
:101CC00029FEC020009012200190694603965046DC
:101CD000FEF720FECDE9008769465046CDE9024572
:101CE000FEF718FE06B0BDE8F087000000100240C5
:101CF00000080140000C014010B586B000241A48CD
:101D0000059404940094019402941649039401608C
:101D10004721C0E901144FF6FF71C0E90314802187
:101D2000C0E90541FFF74FFB08B1FEF793FD202006
:101D3000CDE9040404A90C48FFF71EFA08B1FEF728
:101D400089FD0120CDE900400820CDE902400022B4
:101D500069460548FFF7B0FA002801D0FEF77AFD82
:101D600006B010BD002C0140700000200C4810B5DA
:101D70000A4901604FF4E1314160002181600C2289
:101D8000C160C0E904128161C161FFF771FD0028E3
:101D900003D0BDE81040FEF75DBD10BD0038014026
:101DA000D80000200E4810B50C4901604FF41651C0
:101DB0004160002181600C22C160C0E90412816190
:101DC000C161FFF755FD08B1FEF744FD04490C223F
:101DD000BDE8104060390248FFF7EABD0048004006
:101DE00018010020FEE7FEE770477047FEF796BE39
:101DF00030B58FB028216846FEF7ABF914210AA848
:101E0000FEF7A7F901210804CDE90010002402948F
:101E100002250491CDE907504FF4E010099068467F
:101E2000FFF704F808B172B6FEE70F20CDE90A0506
:101E30004FF48060CDE90C4002210AA80E94FEF711
:101E400009FF002801D072B6FEE70FB030BD704721
:101E50000148FFF721BB0000700000200148FFF798
:101E60001BBB000070000020F0B50268164B174C39
:101E7000174D4FF08047984205D0B84203D0A0429A
:101E800001D0A84203D122F070064A68324398423A
:101E900005D0B84203D0A04201D0A84203D122F419
:101EA0004074CA6822434C6922F0800222430260D7
:101EB0008A68C2620A688262984201D10969016334
:101EC00001214161F0BD0000002C014000040040F0
:101ED0000008004010B501F01F030121046A994079
:101EE0008C430462016A9A401143016210BD0000F4
:101EF00070B5046A24F0010404628469056A0F4E17
:101F0000B04208D0B0F1804F05D00D4EB04202D0A3
:101F10000C4EB04203D124F00304144301E044F01A
:101F200001041A0724F0F00444EA126225F00A03BF
:101F300001F00A0119438261016270BD002C014069
:101F4000000400400008004030B5046A24F010048A
:101F500004628469056A24F4407444EA022222F48B
:101F600070444FF6FF7202EA03322243A02425F0A8
:101F7000A00304EA011119438261016230BD10B56A
:101F8000406A0021C185C184FFF7C2FB10BD016812
:101F9000CA6822F49072CA6001684A6922F001029C
:101FA0004A61202180F83A10704710B590F83A1035
:101FB000222901D0022010BD82684FF480539A423A
:101FC00001D1016921B1816A9A421BD04AB10AE06C
:101FD0000268816A5268C2F308020A80816A891C19
:101FE00008E0026972B10268526802F07F020A706A
:101FF000816A491C8162C18D491E0904090CC18591
:1020000003D016E002685268F1E70168CA6822F05E
:102010002002CA600168CA6822F48072CA6001683E
:102020004A6922F001024A61202180F83A10FFF744
:10203000E9FC002010BD000070B50446006801698D
:10204000E26821F44051114301612169A06808430D
:10205000616908432168CA6841F20C639A430243EC
:10206000CA6020684169A26921F44071114341614D
:102070001E492068884202D1FEF792FE01E0FEF779
:102080007FFE00EBC00101EB00126068642180005C
:10209000B2FBF0F3B3FBF1F36FF018067343B2FB3E
:1020A000F0F5B2FBF0F605EB8305322303EB0515E3
:1020B000B5FBF1F5B6FBF1F605F0F00505EB0615FD
:1020C000B2FBF0F6B2FBF0F0B0FBF1F06FF01802EB
:1020D000504306EB800003EB0010B0FBF1F02168E9
:1020E00000F00F002844886070BD000000380140F7
:1020F0002DE9F041984617460E460446069D1DE020
:10210000681C1BD02DB1FEF703FDA0EB0800A84210
:1021100014D92068C16821F4D071C1602068416978
:1021200021F001014161202084F8390084F83A004F
:10213000002084F838000320BDE8F08120680068A2
:1021400036EA000004D00020B842D9D00020F3E7DE
:102150000120F9E70148FFF7DDBA0000D8000020B0
:102160000148FFF7D7BA000018010020FEE7000081
:102170000FB4054B10B503A9044A029800F0DAF831
:1021800010BC5DF814FB0000652A00085C0000200C
:102190000907090E002804DB00F1E02080F8001494
:1021A000704700F00F0000F1E02080F8141D704728
:1021B00002E008C8121F08C1002AFAD17047704710
:1021C000002001E001C1121F002AFBD1704700006E
:1021D0002DE9FF5FDDE90220010DDDF838B0024393
:1021E00018D044F61050A1F2FF3141430D140F985E
:1021F000012820D0A5EB0B00401C5FEA000A4FF03D
:102200000004474EDFF81C91A046504616D5CAF18F
:10221000000728E00F98012443A2012808D00021DC
:1022200000980F9BC0E90021C0E90243BDE8FF9F71
:102230006FEA0B01F4E7CBF10000DEE7074612E09E
:10224000F80707D02246334640464946FEF75FF975
:10225000804689462246334610461946FEF757F90E
:1022600004460E467F10002FEAD1DDE90201BAF1E3
:10227000000F42464B4602DAFEF749F901E0FEF74D
:10228000B8F904460E460022284BFEF739FA03D867
:102290004FF0FF30014607E00022254B2046314633
:1022A000FEF78EF8FEF714FA102409E0002C0ADB82
:1022B0000A220023FEF71CF8019B30321A55641ED7
:1022C00050EA0102F2D1641C019AC4F111031444D2
:1022D0000F9A012A03D0012208430DD10AE00843D6
:1022E00004D000204FF0110B0F9080E7A3EB0B05FB
:1022F0006D1E0DE05B4504DD4FF0000205F10105A8
:1023000004E003DA4FF00002A5F10105002AECD049
:1023100000980F99C0E90231C0E9004586E7000046
:10232000000024400000F03F300000000000F043B7
:102330000000E03F2DE9FF4F95B09B4689460646D9
:1023400000250FE2252877D100242746F84A0121ED
:10235000059400E0044316F8013F203B01FA03F026
:102360001042F7D130782A2811D06FF02F0330783F
:10237000A0F13002092A16D8059A44F0020402EBB3
:10238000820203EB42021044761C0590EFE759F8F5
:10239000042B0592002A03DA504244F400540590BD
:1023A00044F00204761C30782E2816D116F8010F5E
:1023B00044F004042A280DD06FF02F023078A0F1E9
:1023C0003003092B09D807EB870302EB4303C71837
:1023D000761CF3E759F8047B761C30786C280FD014
:1023E00006DC4C2817D068280DD06A2814D104E0E8
:1023F000742810D07A280FD10DE044F400140AE0BC
:1024000044F4801401E044F440147278824202D112
:1024100004F58014761C761C307866280BD013DC0B
:10242000582877D009DC002875D04528F6D04628F2
:10243000F4D047281AD19DE118E0632835D06428EC
:1024400079D0652812D195E1702873D008DC67280F
:10245000F1D069286FD06E280DD06F2806D1B5E075
:1024600073282CD0752875D0782874D05A461799BF
:1024700090476D1C75E1C4F30250022809D003286F
:102480000DD0D9F8001004280DD00D6009F1040911
:1024900067E1D9F80010EA17C1E90052F6E7D9F868
:1024A00000100D80F2E70D70F0E719F8041B8DF8AD
:1024B000001000208DF80100EA46012003E059F8E1
:1024C00004AB4FF0FF3061074FF0000102D40DE084
:1024D00008F101018846B9420FDA8045F8DB1AF8A5
:1024E00008100029F4D108E008F101018846814272
:1024F000FADB1AF808100029F6D105985B46A0EB24
:10250000080721463846179A00F094FA284400EB51
:10251000080507E04DE029E10DE01AF8010B5A46E5
:1025200017999047B8F10108F7D25B462146384623
:10253000179A13E142E00A220092C4F302524FF0CC
:10254000000A022A08D059F804CB032A4FEAEC719A
:102550000AD00DE029E02AE009F1070121F0070285
:10256000F2E802C1914609E00FFA8CFC4FEAEC71E7
:10257000042A03D14FFA8CFC4FEAEC71002907DAE8
:102580000A460021DCF1000C61EB02012D2202E081
:10259000220504D52B228DF80420012203E0E20756
:1025A00001D02022F7E7904659E00A2102E01022EC
:1025B0000DE010214FF0000A00910BE010224FF0C7
:1025C000000A44F004040827009203E008224FF0B8
:1025D000000A0092C4F30252022A05D059F804CB33
:1025E0000021032A08D009E009F1070121F00702C0
:1025F000F2E802C1914605E01FFA8CFC042A01D1E1
:102600000CF0FF0C4FF00008220728D5702806D0E8
:10261000009B83F0100353EA0A0305D00EE040222A
:102620008DF80420012208E05CEA010206D0302285
:102630008DF804208DF8050002229046009B83F05F
:10264000080353EA0A030AD15CEA010201D16207D6
:1026500005D530228DF804204FF001087F1E582840
:1026600004D034A003900EA802900DE036A0F9E744
:1026700053466046009AFDF73BFE84460398825C11
:102680000298401E029002705CEA0100F0D10298AC
:1026900006A9081A00F1200A600702D524F4803444
:1026A00000E00127574502DDA7EB0A0000E000200B
:1026B00000EB0A01009005984144401A0590E003A0
:1026C00006D45B462146179A059800F0B3F90544F5
:1026D000002706E001A85A46C05D179990476D1C77
:1026E0007F1C4745F6DBE0030CD55B462146179A75
:1026F000059800F09FF9054404E030205A461799E8
:1027000090476D1C0099481E00900029F5DC08E0F8
:10271000029802995A460078491C029117999047ED
:102720006D1CBAF10001AAF1010AF1DC65E10000BB
:102730000928010030313233343536373839616297
:10274000636465660000000030313233343536375B
:1027500038394142434445460000000000F058F932
:102760000544761C307800287FF4ECAD19B028467B
:10277000BDE8F08F620700D4062709F1070222F0B6
:10278000070CFCE80223E14603F000485FEA080C6E
:1027900002D00FF2702C0DE05FEA045C02D50FF25C
:1027A000682C07E05FEAC47C02D00FF2602C01E0E5
:1027B000AFF2700C4FF0FF3823F00043CDF850C05B
:1027C00065280CD006DC452809D046281DD04728AE
:1027D0003DD13DE0662818D067287ED138E0002141
:1027E000112F01DB112000E0781CCDE9000106A9C2
:1027F0000EA8FFF7EDFCDDE90F010E9A0391002111
:10280000009207F1010A04914DE04FF0004000975B
:10281000CDE9011006A90EA8FFF7DAFCDDE90F02E9
:1028200003920E9B11990022DDF80CA000930492F4
:1028300011B9791C00EB010AB7EB0A0004D4C0F10E
:10284000FF3007F1010A0490AAEB0700019044E071
:10285000012F00DA01270021112F01DD112000E0F6
:102860003846CDE9000106A90EA8FFF7B1FCDDE965
:102870000F010E9A0391002104910092BA4621079C
:102880000CD40399514500DA8A46BAF1010F05DDEF
:10289000009AAAF10101515C302908D0B84202DA4D
:1028A00010F1040F06DA0121CDE9011015E0AAF1BB
:1028B0000101E9E7002805DC049901440491AAEB31
:1028C000000102E0411C514500DD8A460499401A8E
:1028D000401C01904FF000400290200704D4019862
:1028E000504501DBCDF8048000208DF84F000298A0
:1028F0000DF14F07B0F1004F25D02B200E9002981C
:102900004FF0020800280CDA404202902D200E9071
:1029100007E00A210298FDF7D5FC3031029007F854
:10292000011DB8F10001A8F10108F2DC02980028AD
:10293000EFD1791E0E980870307800F0200040F03A
:10294000450007F8020D12A8C01B00F107081498F3
:10295000007800B1012000EB0A01019801EBE07161
:1029600005984144401A401E0590E00306D45B469A
:102970002146179A059800F05DF8054414980078F0
:1029800018B15A46179990476D1CE00324D55B4651
:102990002146179A059800F04DF805441CE004986C
:1029A000002807DBDDE90301884203DD0098405C75
:1029B000179901E0179930205A469047049805F17D
:1029C0000105401C04900198401E019004D12E2066
:1029D0005A46179990476D1CBAF10001AAF1010AF5
:1029E000DDDC05E017F8010B5A46179990476D1C7E
:1029F000B8F10001A8F10108F4DC5B462146179A02
:102A00000598ABE62D0000002B0000002000000020
:102A10002DE9F041044600251E461746880404D4DB
:102A200005E039462020B0476D1C641EF9D52846C4
:102A3000BDE8F0812DE9F041044600251E46904690
:102A4000C80301D5302700E02027880404D505E01D
:102A500041463846B0476D1C641EF9D52846BDE88E
:102A6000F081000013B54FF6FF730122694602485A
:102A7000FFF768F800981CBDD800002008B5FEF7E5
:102A800055F8FFF7B5F9FFF7D7F8FFF76FF9FFF73C
:102A900033F9FFF787F93A2253495448FFF7ABF867
:102AA0005348FEF79DFB00215148FEF7A9FD4E4C0F
:102AB000504EDFF84491514F4FF4FA7B083C4FF0F1
:102AC00000085846FDF714FF4FF400414C48FEF74C
:102AD00011F830680546FDF7DDFB01466068FDF73B
:102AE0009BFBFDF7DCFB02460B4646A00095FFF77B
:102AF0003FFBC6F80080C4F80480387845460028BB
:102B00006DD046A0FFF734FB257099F80310002024
:102B10004A46091D05E0135C94F800C0401C63445C
:102B200023708142F7DC19F80000217888424BD1EC
:102B3000B9F8050040BAFDF7ADFBDFF8F4A0CAF81C
:102B40000400B9F8070040BAFDF7A4FBCAF8080072
:102B5000B9F8090040BAFDF79DFBCAF80C0099F8D6
:102B60000400FDF797FB3349CAF80000FDF754FB5A
:102B7000FDF795FB02460B462FA0FFF7F9FA2D490A
:102B8000DAF80400FDF748FBFDF789FB02460B4627
:102B90002CA0FFF7EDFA2749DAF80800FDF73CFB17
:102BA000FDF77DFB02460B4629A0FFF7E1FA21491C
:102BB000DAF80C00FDF730FBFDF771FB02460B461F
:102BC00026A0FFF7D5FA08E027A0FFF7D1FA99F879
:102BD000031028A0091DFFF7CBFA3D7071E729A06B
:102BE000FFF7C6FA6DE7000008000020D8000020BB
:102BF0007000002044000020B80000204A0000209F
:102C00000008014052504D3A25662C636F756E7472
:102C1000203D3D2025640D0A00000000666F756EA2
:102C200064207375636365737366756C6C790A00F1
:102C3000600000200000C842453A20252E32662C54
:102C4000000000002020746F3A20252E32662C00F0
:102C5000202074613A20252E32662C0020626F20DD
:102C6000252E32660D0A20002073756D2025640D17
:102C70000A20000020636F756E742025640D0A2001
:102C8000000000006E6F7420666F756E640A0000AD
:102C9000000000000000000001020304060708090C
:102CA0000000000001020304C82C000800000020FE
:102CB00060000000B0210008282D000860000020FE
:102CC000F8040000C021000800000000000000001F
:102CD0000D0A2A2A2A2A554152542D4879706572C4
:102CE0007465726D696E616C20636F6D6D756E6970
:102CF000636174696F6E206261736564206F6E201A
:102D00004954202A2A2A2A0D0A0000000000000047
:102D100000000000010000001000000000000000A2
:082D20000024F4000000000093
:04000005080000ED02
:00000001FF
